{
  "contractName": "Saksham",
  "abi": [
    {
      "inputs": [],
      "stateMutability": "nonpayable",
      "type": "constructor"
    },
    {
      "inputs": [
        {
          "internalType": "address",
          "name": "spender",
          "type": "address"
        },
        {
          "internalType": "uint256",
          "name": "allowance",
          "type": "uint256"
        },
        {
          "internalType": "uint256",
          "name": "needed",
          "type": "uint256"
        }
      ],
      "name": "ERC20InsufficientAllowance",
      "type": "error"
    },
    {
      "inputs": [
        {
          "internalType": "address",
          "name": "sender",
          "type": "address"
        },
        {
          "internalType": "uint256",
          "name": "balance",
          "type": "uint256"
        },
        {
          "internalType": "uint256",
          "name": "needed",
          "type": "uint256"
        }
      ],
      "name": "ERC20InsufficientBalance",
      "type": "error"
    },
    {
      "inputs": [
        {
          "internalType": "address",
          "name": "approver",
          "type": "address"
        }
      ],
      "name": "ERC20InvalidApprover",
      "type": "error"
    },
    {
      "inputs": [
        {
          "internalType": "address",
          "name": "receiver",
          "type": "address"
        }
      ],
      "name": "ERC20InvalidReceiver",
      "type": "error"
    },
    {
      "inputs": [
        {
          "internalType": "address",
          "name": "sender",
          "type": "address"
        }
      ],
      "name": "ERC20InvalidSender",
      "type": "error"
    },
    {
      "inputs": [
        {
          "internalType": "address",
          "name": "spender",
          "type": "address"
        }
      ],
      "name": "ERC20InvalidSpender",
      "type": "error"
    },
    {
      "anonymous": false,
      "inputs": [
        {
          "indexed": true,
          "internalType": "address",
          "name": "owner",
          "type": "address"
        },
        {
          "indexed": true,
          "internalType": "address",
          "name": "spender",
          "type": "address"
        },
        {
          "indexed": false,
          "internalType": "uint256",
          "name": "value",
          "type": "uint256"
        }
      ],
      "name": "Approval",
      "type": "event"
    },
    {
      "anonymous": false,
      "inputs": [
        {
          "indexed": true,
          "internalType": "address",
          "name": "from",
          "type": "address"
        },
        {
          "indexed": true,
          "internalType": "address",
          "name": "to",
          "type": "address"
        },
        {
          "indexed": false,
          "internalType": "uint256",
          "name": "value",
          "type": "uint256"
        }
      ],
      "name": "Transfer",
      "type": "event"
    },
    {
      "inputs": [
        {
          "internalType": "address",
          "name": "owner",
          "type": "address"
        },
        {
          "internalType": "address",
          "name": "spender",
          "type": "address"
        }
      ],
      "name": "allowance",
      "outputs": [
        {
          "internalType": "uint256",
          "name": "",
          "type": "uint256"
        }
      ],
      "stateMutability": "view",
      "type": "function"
    },
    {
      "inputs": [
        {
          "internalType": "address",
          "name": "spender",
          "type": "address"
        },
        {
          "internalType": "uint256",
          "name": "value",
          "type": "uint256"
        }
      ],
      "name": "approve",
      "outputs": [
        {
          "internalType": "bool",
          "name": "",
          "type": "bool"
        }
      ],
      "stateMutability": "nonpayable",
      "type": "function"
    },
    {
      "inputs": [
        {
          "internalType": "address",
          "name": "account",
          "type": "address"
        }
      ],
      "name": "balanceOf",
      "outputs": [
        {
          "internalType": "uint256",
          "name": "",
          "type": "uint256"
        }
      ],
      "stateMutability": "view",
      "type": "function"
    },
    {
      "inputs": [],
      "name": "decimals",
      "outputs": [
        {
          "internalType": "uint8",
          "name": "",
          "type": "uint8"
        }
      ],
      "stateMutability": "view",
      "type": "function"
    },
    {
      "inputs": [],
      "name": "name",
      "outputs": [
        {
          "internalType": "string",
          "name": "",
          "type": "string"
        }
      ],
      "stateMutability": "view",
      "type": "function"
    },
    {
      "inputs": [],
      "name": "owner",
      "outputs": [
        {
          "internalType": "address",
          "name": "",
          "type": "address"
        }
      ],
      "stateMutability": "view",
      "type": "function"
    },
    {
      "inputs": [],
      "name": "symbol",
      "outputs": [
        {
          "internalType": "string",
          "name": "",
          "type": "string"
        }
      ],
      "stateMutability": "view",
      "type": "function"
    },
    {
      "inputs": [],
      "name": "totalSupply",
      "outputs": [
        {
          "internalType": "uint256",
          "name": "",
          "type": "uint256"
        }
      ],
      "stateMutability": "view",
      "type": "function"
    },
    {
      "inputs": [
        {
          "internalType": "address",
          "name": "to",
          "type": "address"
        },
        {
          "internalType": "uint256",
          "name": "value",
          "type": "uint256"
        }
      ],
      "name": "transfer",
      "outputs": [
        {
          "internalType": "bool",
          "name": "",
          "type": "bool"
        }
      ],
      "stateMutability": "nonpayable",
      "type": "function"
    },
    {
      "inputs": [
        {
          "internalType": "address",
          "name": "from",
          "type": "address"
        },
        {
          "internalType": "address",
          "name": "to",
          "type": "address"
        },
        {
          "internalType": "uint256",
          "name": "value",
          "type": "uint256"
        }
      ],
      "name": "transferFrom",
      "outputs": [
        {
          "internalType": "bool",
          "name": "",
          "type": "bool"
        }
      ],
      "stateMutability": "nonpayable",
      "type": "function"
    },
    {
      "inputs": [
        {
          "internalType": "address",
          "name": "transferTo",
          "type": "address"
        },
        {
          "internalType": "uint256",
          "name": "amountTransfer",
          "type": "uint256"
        }
      ],
      "name": "mintToken",
      "outputs": [],
      "stateMutability": "nonpayable",
      "type": "function"
    },
    {
      "inputs": [
        {
          "internalType": "uint256",
          "name": "amountBurned",
          "type": "uint256"
        }
      ],
      "name": "burn",
      "outputs": [],
      "stateMutability": "nonpayable",
      "type": "function"
    }
  ],
  "bytecode": "0x608060405234801562000010575f80fd5b506040518060400160405280600781526020017f53616b7368616d000000000000000000000000000000000000000000000000008152506040518060400160405280600381526020017f535343000000000000000000000000000000000000000000000000000000000081525081600390816200008e919062000616565b508060049081620000a0919062000616565b505050620000be3368056bc75e2d631000006200010460201b60201c565b3360055f6101000a81548173ffffffffffffffffffffffffffffffffffffffff021916908373ffffffffffffffffffffffffffffffffffffffff16021790555062000826565b5f73ffffffffffffffffffffffffffffffffffffffff168273ffffffffffffffffffffffffffffffffffffffff160362000177575f6040517fec442f050000000000000000000000000000000000000000000000000000000081526004016200016e91906200073d565b60405180910390fd5b6200018a5f83836200018e60201b60201c565b5050565b5f73ffffffffffffffffffffffffffffffffffffffff168373ffffffffffffffffffffffffffffffffffffffff1603620001e2578060025f828254620001d5919062000785565b92505081905550620002b3565b5f805f8573ffffffffffffffffffffffffffffffffffffffff1673ffffffffffffffffffffffffffffffffffffffff1681526020019081526020015f20549050818110156200026e578381836040517fe450d38c0000000000000000000000000000000000000000000000000000000081526004016200026593929190620007d0565b60405180910390fd5b8181035f808673ffffffffffffffffffffffffffffffffffffffff1673ffffffffffffffffffffffffffffffffffffffff1681526020019081526020015f2081905550505b5f73ffffffffffffffffffffffffffffffffffffffff168273ffffffffffffffffffffffffffffffffffffffff1603620002fc578060025f828254039250508190555062000346565b805f808473ffffffffffffffffffffffffffffffffffffffff1673ffffffffffffffffffffffffffffffffffffffff1681526020019081526020015f205f82825401925050819055505b8173ffffffffffffffffffffffffffffffffffffffff168373ffffffffffffffffffffffffffffffffffffffff167fddf252ad1be2c89b69c2b068fc378daa952ba7f163c4a11628f55a4df523b3ef83604051620003a591906200080b565b60405180910390a3505050565b5f81519050919050565b7f4e487b71000000000000000000000000000000000000000000000000000000005f52604160045260245ffd5b7f4e487b71000000000000000000000000000000000000000000000000000000005f52602260045260245ffd5b5f60028204905060018216806200042e57607f821691505b602082108103620004445762000443620003e9565b5b50919050565b5f819050815f5260205f209050919050565b5f6020601f8301049050919050565b5f82821b905092915050565b5f60088302620004a87fffffffffffffffffffffffffffffffffffffffffffffffffffffffffffffffff826200046b565b620004b486836200046b565b95508019841693508086168417925050509392505050565b5f819050919050565b5f819050919050565b5f620004fe620004f8620004f284620004cc565b620004d5565b620004cc565b9050919050565b5f819050919050565b6200051983620004de565b62000531620005288262000505565b84845462000477565b825550505050565b5f90565b6200054762000539565b620005548184846200050e565b505050565b5b818110156200057b576200056f5f826200053d565b6001810190506200055a565b5050565b601f821115620005ca5762000594816200044a565b6200059f846200045c565b81016020851015620005af578190505b620005c7620005be856200045c565b83018262000559565b50505b505050565b5f82821c905092915050565b5f620005ec5f1984600802620005cf565b1980831691505092915050565b5f620006068383620005db565b9150826002028217905092915050565b6200062182620003b2565b67ffffffffffffffff8111156200063d576200063c620003bc565b5b62000649825462000416565b620006568282856200057f565b5f60209050601f8311600181146200068c575f841562000677578287015190505b620006838582620005f9565b865550620006f2565b601f1984166200069c866200044a565b5f5b82811015620006c5578489015182556001820191506020850194506020810190506200069e565b86831015620006e55784890151620006e1601f891682620005db565b8355505b6001600288020188555050505b505050505050565b5f73ffffffffffffffffffffffffffffffffffffffff82169050919050565b5f6200072582620006fa565b9050919050565b620007378162000719565b82525050565b5f602082019050620007525f8301846200072c565b92915050565b7f4e487b71000000000000000000000000000000000000000000000000000000005f52601160045260245ffd5b5f6200079182620004cc565b91506200079e83620004cc565b9250828201905080821115620007b957620007b862000758565b5b92915050565b620007ca81620004cc565b82525050565b5f606082019050620007e55f8301866200072c565b620007f46020830185620007bf565b620008036040830184620007bf565b949350505050565b5f602082019050620008205f830184620007bf565b92915050565b6110d280620008345f395ff3fe608060405234801561000f575f80fd5b50600436106100b2575f3560e01c806370a082311161006f57806370a082311461018c57806379c65068146101bc5780638da5cb5b146101d857806395d89b41146101f6578063a9059cbb14610214578063dd62ed3e14610244576100b2565b806306fdde03146100b6578063095ea7b3146100d457806318160ddd1461010457806323b872dd14610122578063313ce5671461015257806342966c6814610170575b5f80fd5b6100be610274565b6040516100cb9190610cb8565b60405180910390f35b6100ee60048036038101906100e99190610d69565b610304565b6040516100fb9190610dc1565b60405180910390f35b61010c610326565b6040516101199190610de9565b60405180910390f35b61013c60048036038101906101379190610e02565b61032f565b6040516101499190610dc1565b60405180910390f35b61015a61035d565b6040516101679190610e6d565b60405180910390f35b61018a60048036038101906101859190610e86565b610365565b005b6101a660048036038101906101a19190610eb1565b610372565b6040516101b39190610de9565b60405180910390f35b6101d660048036038101906101d19190610d69565b6103b7565b005b6101e0610454565b6040516101ed9190610eeb565b60405180910390f35b6101fe610479565b60405161020b9190610cb8565b60405180910390f35b61022e60048036038101906102299190610d69565b610509565b60405161023b9190610dc1565b60405180910390f35b61025e60048036038101906102599190610f04565b61052b565b60405161026b9190610de9565b60405180910390f35b60606003805461028390610f6f565b80601f01602080910402602001604051908101604052809291908181526020018280546102af90610f6f565b80156102fa5780601f106102d1576101008083540402835291602001916102fa565b820191905f5260205f20905b8154815290600101906020018083116102dd57829003601f168201915b5050505050905090565b5f8061030e6105ad565b905061031b8185856105b4565b600191505092915050565b5f600254905090565b5f806103396105ad565b90506103468582856105c6565b610351858585610658565b60019150509392505050565b5f6012905090565b61036f3382610748565b50565b5f805f8373ffffffffffffffffffffffffffffffffffffffff1673ffffffffffffffffffffffffffffffffffffffff1681526020019081526020015f20549050919050565b60055f9054906101000a900473ffffffffffffffffffffffffffffffffffffffff1673ffffffffffffffffffffffffffffffffffffffff163373ffffffffffffffffffffffffffffffffffffffff1614610446576040517f08c379a000000000000000000000000000000000000000000000000000000000815260040161043d90610fe9565b60405180910390fd5b61045082826107c7565b5050565b60055f9054906101000a900473ffffffffffffffffffffffffffffffffffffffff1681565b60606004805461048890610f6f565b80601f01602080910402602001604051908101604052809291908181526020018280546104b490610f6f565b80156104ff5780601f106104d6576101008083540402835291602001916104ff565b820191905f5260205f20905b8154815290600101906020018083116104e257829003601f168201915b5050505050905090565b5f806105136105ad565b9050610520818585610658565b600191505092915050565b5f60015f8473ffffffffffffffffffffffffffffffffffffffff1673ffffffffffffffffffffffffffffffffffffffff1681526020019081526020015f205f8373ffffffffffffffffffffffffffffffffffffffff1673ffffffffffffffffffffffffffffffffffffffff1681526020019081526020015f2054905092915050565b5f33905090565b6105c18383836001610846565b505050565b5f6105d1848461052b565b90507fffffffffffffffffffffffffffffffffffffffffffffffffffffffffffffffff81146106525781811015610643578281836040517ffb8f41b200000000000000000000000000000000000000000000000000000000815260040161063a93929190611007565b60405180910390fd5b61065184848484035f610846565b5b50505050565b5f73ffffffffffffffffffffffffffffffffffffffff168373ffffffffffffffffffffffffffffffffffffffff16036106c8575f6040517f96c6fd1e0000000000000000000000000000000000000000000000000000000081526004016106bf9190610eeb565b60405180910390fd5b5f73ffffffffffffffffffffffffffffffffffffffff168273ffffffffffffffffffffffffffffffffffffffff1603610738575f6040517fec442f0500000000000000000000000000000000000000000000000000000000815260040161072f9190610eeb565b60405180910390fd5b610743838383610a15565b505050565b5f73ffffffffffffffffffffffffffffffffffffffff168273ffffffffffffffffffffffffffffffffffffffff16036107b8575f6040517f96c6fd1e0000000000000000000000000000000000000000000000000000000081526004016107af9190610eeb565b60405180910390fd5b6107c3825f83610a15565b5050565b5f73ffffffffffffffffffffffffffffffffffffffff168273ffffffffffffffffffffffffffffffffffffffff1603610837575f6040517fec442f0500000000000000000000000000000000000000000000000000000000815260040161082e9190610eeb565b60405180910390fd5b6108425f8383610a15565b5050565b5f73ffffffffffffffffffffffffffffffffffffffff168473ffffffffffffffffffffffffffffffffffffffff16036108b6575f6040517fe602df050000000000000000000000000000000000000000000000000000000081526004016108ad9190610eeb565b60405180910390fd5b5f73ffffffffffffffffffffffffffffffffffffffff168373ffffffffffffffffffffffffffffffffffffffff1603610926575f6040517f94280d6200000000000000000000000000000000000000000000000000000000815260040161091d9190610eeb565b60405180910390fd5b8160015f8673ffffffffffffffffffffffffffffffffffffffff1673ffffffffffffffffffffffffffffffffffffffff1681526020019081526020015f205f8573ffffffffffffffffffffffffffffffffffffffff1673ffffffffffffffffffffffffffffffffffffffff1681526020019081526020015f20819055508015610a0f578273ffffffffffffffffffffffffffffffffffffffff168473ffffffffffffffffffffffffffffffffffffffff167f8c5be1e5ebec7d5bd14f71427d1e84f3dd0314c0f7b2291e5b200ac8c7c3b92584604051610a069190610de9565b60405180910390a35b50505050565b5f73ffffffffffffffffffffffffffffffffffffffff168373ffffffffffffffffffffffffffffffffffffffff1603610a65578060025f828254610a599190611069565b92505081905550610b33565b5f805f8573ffffffffffffffffffffffffffffffffffffffff1673ffffffffffffffffffffffffffffffffffffffff1681526020019081526020015f2054905081811015610aee578381836040517fe450d38c000000000000000000000000000000000000000000000000000000008152600401610ae593929190611007565b60405180910390fd5b8181035f808673ffffffffffffffffffffffffffffffffffffffff1673ffffffffffffffffffffffffffffffffffffffff1681526020019081526020015f2081905550505b5f73ffffffffffffffffffffffffffffffffffffffff168273ffffffffffffffffffffffffffffffffffffffff1603610b7a578060025f8282540392505081905550610bc4565b805f808473ffffffffffffffffffffffffffffffffffffffff1673ffffffffffffffffffffffffffffffffffffffff1681526020019081526020015f205f82825401925050819055505b8173ffffffffffffffffffffffffffffffffffffffff168373ffffffffffffffffffffffffffffffffffffffff167fddf252ad1be2c89b69c2b068fc378daa952ba7f163c4a11628f55a4df523b3ef83604051610c219190610de9565b60405180910390a3505050565b5f81519050919050565b5f82825260208201905092915050565b5f5b83811015610c65578082015181840152602081019050610c4a565b5f8484015250505050565b5f601f19601f8301169050919050565b5f610c8a82610c2e565b610c948185610c38565b9350610ca4818560208601610c48565b610cad81610c70565b840191505092915050565b5f6020820190508181035f830152610cd08184610c80565b905092915050565b5f80fd5b5f73ffffffffffffffffffffffffffffffffffffffff82169050919050565b5f610d0582610cdc565b9050919050565b610d1581610cfb565b8114610d1f575f80fd5b50565b5f81359050610d3081610d0c565b92915050565b5f819050919050565b610d4881610d36565b8114610d52575f80fd5b50565b5f81359050610d6381610d3f565b92915050565b5f8060408385031215610d7f57610d7e610cd8565b5b5f610d8c85828601610d22565b9250506020610d9d85828601610d55565b9150509250929050565b5f8115159050919050565b610dbb81610da7565b82525050565b5f602082019050610dd45f830184610db2565b92915050565b610de381610d36565b82525050565b5f602082019050610dfc5f830184610dda565b92915050565b5f805f60608486031215610e1957610e18610cd8565b5b5f610e2686828701610d22565b9350506020610e3786828701610d22565b9250506040610e4886828701610d55565b9150509250925092565b5f60ff82169050919050565b610e6781610e52565b82525050565b5f602082019050610e805f830184610e5e565b92915050565b5f60208284031215610e9b57610e9a610cd8565b5b5f610ea884828501610d55565b91505092915050565b5f60208284031215610ec657610ec5610cd8565b5b5f610ed384828501610d22565b91505092915050565b610ee581610cfb565b82525050565b5f602082019050610efe5f830184610edc565b92915050565b5f8060408385031215610f1a57610f19610cd8565b5b5f610f2785828601610d22565b9250506020610f3885828601610d22565b9150509250929050565b7f4e487b71000000000000000000000000000000000000000000000000000000005f52602260045260245ffd5b5f6002820490506001821680610f8657607f821691505b602082108103610f9957610f98610f42565b5b50919050565b7f4e6f74204f776e657200000000000000000000000000000000000000000000005f82015250565b5f610fd3600983610c38565b9150610fde82610f9f565b602082019050919050565b5f6020820190508181035f83015261100081610fc7565b9050919050565b5f60608201905061101a5f830186610edc565b6110276020830185610dda565b6110346040830184610dda565b949350505050565b7f4e487b71000000000000000000000000000000000000000000000000000000005f52601160045260245ffd5b5f61107382610d36565b915061107e83610d36565b92508282019050808211156110965761109561103c565b5b9291505056fea2646970667358221220391a4815acd5a4e47894c1a413dd69fa6f18db2fc77e91bef1b3d42b2646435364736f6c63430008150033",
  "immutableReferences": {},
  "source": "//SPDX-License-Identifier: MIT\r\n\r\npragma solidity ^0.8.0;\r\n\r\nimport \"../node_modules/@openzeppelin/contracts/token/ERC20/ERC20.sol\";\r\n contract Saksham is ERC20{\r\n\r\naddress public owner;\r\n\r\n\r\n    constructor() ERC20(\"Saksham\",\"SSC\"){\r\n        _mint(msg.sender,100*10**18);\r\n        owner = msg.sender;\r\n    }\r\n   \r\n    \r\n\r\n    function mintToken(address transferTo, uint256 amountTransfer) external {\r\n        require(msg.sender == owner , \"Not Owner\");\r\n        _mint(transferTo,amountTransfer);\r\n}\r\n\r\n    \r\n\r\n    function burn(uint256 amountBurned) external {\r\n        _burn(msg.sender,amountBurned);\r\n    }\r\n }",
  "sourcePath": "C:\\Users\\Manas\\Desktop\\Anveshna\\contracts\\token.sol",
  "compiler": {
    "name": "solc",
    "version": "0.8.21+commit.d9974bed.Emscripten.clang"
  },
  "schemaVersion": "3.4.16",
  "updatedAt": "2023-11-21T17:01:00.411Z",
  "devdoc": {
    "errors": {
      "ERC20InsufficientAllowance(address,uint256,uint256)": [
        {
          "details": "Indicates a failure with the `spender`s `allowance`. Used in transfers.",
          "params": {
            "allowance": "Amount of tokens a `spender` is allowed to operate with.",
            "needed": "Minimum amount required to perform a transfer.",
            "spender": "Address that may be allowed to operate on tokens without being their owner."
          }
        }
      ],
      "ERC20InsufficientBalance(address,uint256,uint256)": [
        {
          "details": "Indicates an error related to the current `balance` of a `sender`. Used in transfers.",
          "params": {
            "balance": "Current balance for the interacting account.",
            "needed": "Minimum amount required to perform a transfer.",
            "sender": "Address whose tokens are being transferred."
          }
        }
      ],
      "ERC20InvalidApprover(address)": [
        {
          "details": "Indicates a failure with the `approver` of a token to be approved. Used in approvals.",
          "params": {
            "approver": "Address initiating an approval operation."
          }
        }
      ],
      "ERC20InvalidReceiver(address)": [
        {
          "details": "Indicates a failure with the token `receiver`. Used in transfers.",
          "params": {
            "receiver": "Address to which tokens are being transferred."
          }
        }
      ],
      "ERC20InvalidSender(address)": [
        {
          "details": "Indicates a failure with the token `sender`. Used in transfers.",
          "params": {
            "sender": "Address whose tokens are being transferred."
          }
        }
      ],
      "ERC20InvalidSpender(address)": [
        {
          "details": "Indicates a failure with the `spender` to be approved. Used in approvals.",
          "params": {
            "spender": "Address that may be allowed to operate on tokens without being their owner."
          }
        }
      ]
    },
    "events": {
      "Approval(address,address,uint256)": {
        "details": "Emitted when the allowance of a `spender` for an `owner` is set by a call to {approve}. `value` is the new allowance."
      },
      "Transfer(address,address,uint256)": {
        "details": "Emitted when `value` tokens are moved from one account (`from`) to another (`to`). Note that `value` may be zero."
      }
    },
    "kind": "dev",
    "methods": {
      "allowance(address,address)": {
        "details": "See {IERC20-allowance}."
      },
      "approve(address,uint256)": {
        "details": "See {IERC20-approve}. NOTE: If `value` is the maximum `uint256`, the allowance is not updated on `transferFrom`. This is semantically equivalent to an infinite approval. Requirements: - `spender` cannot be the zero address."
      },
      "balanceOf(address)": {
        "details": "See {IERC20-balanceOf}."
      },
      "decimals()": {
        "details": "Returns the number of decimals used to get its user representation. For example, if `decimals` equals `2`, a balance of `505` tokens should be displayed to a user as `5.05` (`505 / 10 ** 2`). Tokens usually opt for a value of 18, imitating the relationship between Ether and Wei. This is the default value returned by this function, unless it's overridden. NOTE: This information is only used for _display_ purposes: it in no way affects any of the arithmetic of the contract, including {IERC20-balanceOf} and {IERC20-transfer}."
      },
      "name()": {
        "details": "Returns the name of the token."
      },
      "symbol()": {
        "details": "Returns the symbol of the token, usually a shorter version of the name."
      },
      "totalSupply()": {
        "details": "See {IERC20-totalSupply}."
      },
      "transfer(address,uint256)": {
        "details": "See {IERC20-transfer}. Requirements: - `to` cannot be the zero address. - the caller must have a balance of at least `value`."
      },
      "transferFrom(address,address,uint256)": {
        "details": "See {IERC20-transferFrom}. Emits an {Approval} event indicating the updated allowance. This is not required by the EIP. See the note at the beginning of {ERC20}. NOTE: Does not update the allowance if the current allowance is the maximum `uint256`. Requirements: - `from` and `to` cannot be the zero address. - `from` must have a balance of at least `value`. - the caller must have allowance for ``from``'s tokens of at least `value`."
      }
    },
    "version": 1
  },
  "userdoc": {
    "kind": "user",
    "methods": {},
    "version": 1
  }
}